:020000040800F2
:100000007810002045010008271B0008DF100008B9
:10001000251B0008410300082B20000800000000F9
:10002000000000000000000000000000491B000864
:100030004303000800000000D10100084D1B000828
:100040005F0100085F0100085F0100085F01000810
:100050005F0100085F0100085F0100085F01000800
:100060005F0100085F0100085F0100085F010008F0
:100070005F0100085F0100085F0100085F010008E0
:100080005F0100085F0100085F0100085F010008D0
:100090005F0100085F0100085F0100085F010008C0
:1000A0005F0100085F0100085F0100085F010008B0
:1000B000B91B00085F0100085F0100085F0100082C
:1000C0005F0100085F0100085F0100085F01000890
:1000D0005F010008C11F0008CD1F0008D91F0008DC
:1000E0005F0100085F0100085F0100085F01000870
:1000F0005F0100085F0100085F0100085F01000860
:100100005F0100085F0100085F0100085F0100084F
:100110005F0100085F010008C51B00085F010008BF
:100120005F0100085F0100085F0100085F0100082F
:10013000DFF80CD000F0F2F8004800472125000855
:10014000781000200648804706480047FEE7FEE793
:10015000FEE7FEE7FEE7FEE7FEE7FEE7FEE7FEE777
:10016000711B00083101000872B62C482C49026846
:1001700041EA020101602B484FF0010101602A4869
:100180004168016001688A884FF0100342EA030267
:100190008A80D1F800C00CF1240CBCE8FF008CF37D
:1001A00009884FF0020C8CF31488AE4662B63047D3
:1001B000EFF3108072B67047EFF3108062B67047AD
:1001C00080F31088704719484FF0805101607047E4
:1001D000EFF3108C72B6164A126822B12DE9005066
:1001E0009047BDE80050EFF3098020E9F01F0E4D65
:1001F0004FF010082E683060B78827EA0807B780EC
:1002000068682860878847EA080787800168B1E83E
:10021000F01F81F309888CF31088704720ED00E00F
:100220000000FFFF940000209800002004ED00E093
:100230007C0000202DE9F05F0546002092469B4699
:1002400088460646814640241BE0284641464746EC
:10025000224600F020F853465A46C01A914110D366
:1002600011461846224600F04AF82D1A67EB01089D
:100270004F4622460120002100F041F817EB00090B
:100280004E41201EA4F10104DFDC484631462A46D7
:100290004346BDE8F09F202A04DB203A21FA02F011
:1002A0000021704721FA02F3D040C2F120029140B0
:1002B00008431946704740EA01039B0703D009E051
:1002C00008C9121F08C0042AFAD203E011F8013B42
:1002D00000F8013B521EF9D27047D2B201E000F89B
:1002E000012B491EFBD270470022F6E710B51346DA
:1002F0000A4604461946FFF7F0FF204610BD202AA3
:1003000004DB203A00FA02F1002070479140C2F16C
:10031000200320FA03F3194390407047064C074D21
:1003200006E0E06840F0010394E8070098471034C5
:10033000AC42F6D3FFF700FFEC3800080C39000898
:10034000FEE77047704700002DE9F05F90F821103C
:100350000024022903D004218163012485E001687F
:100360000A6822F00E020A6001680A6822F001029F
:100370000A603F4E3E4FB215DFF8F4C0DFF8F09050
:10038000DFF8ECA0DFF8E8B0DFF8E4E00168783FE0
:1003900013011502ACF1640CA9F15009AAF13C0A51
:1003A000ABF1280BAEF1140E4FF48018B14227D9EF
:1003B000B9420ED0614512D049451DD0514518D0E3
:1003C000594518D0714501D1424615E0294EB14238
:1003D00001D1012210E0274E1436B14201D1102282
:1003E0000AE0244E2836B14206D0224A3C329142DD
:1003F00001D11A4600E02A461E49091F0A602BE077
:10040000B94213D0614517D0494522D051451DD07E
:1004100059451DD0714501D142461AE0B14202D181
:100420004FF0807215E0134EB14201D1012210E06D
:10043000104E1436B14201D110220AE00D4E28367A
:10044000B14206D00B4A3C32914201D11A4600E03B
:100450002A46074980394A60012180F8211000218D
:1004600080F82010416B01B188472046BDE8F09F1D
:100470008000024008040240064810B54FF0FF31EA
:10048000C16000220261C160C26000F049F9002031
:1004900010BD00000010024070B5044600F008F9DD
:1004A0000546601C02D004480078044400F000F9BE
:1004B000401BA042FAD370BD080000202DE9F84F80
:1004C000DFF8B8A100220AF1040B144601274FF00F
:1004D0000F090BF1040E00BF0B6807FA04F52B405F
:1004E000AB4274D1DFF898C14E68A6EB0C086645A4
:1004F0002BD00DDC032E34D005DC36B3012E19D001
:10050000022E2FD11BE0112E16D0122E2AD119E067
:10051000B8F5881F19D006DCB8F5803F15D0B8F5BE
:10052000801F1FD111E0B8F5001F0ED0B8F5041FD1
:1005300018D10AE0CA6815E0CA68121D12E0CA683C
:1005400008320FE0CA680C320CE08A682AB1012A2E
:100550004FF0080203D0456104E0042202E0056187
:1005600000E00022FF2B01D8064601E000F104065E
:100570004FEA840501D9A5F12005D6F800C009FA93
:1005800005F82CEA080C02FA05F54CEA050CC6F849
:1005900000C04D68ED006AD53A4DAE6946F00106DF
:1005A000AE61AD6924F0030605F001050095364DF6
:1005B00006EB050CDCF80850A6074FEA167809FA96
:1005C00008F6B543314EB04202D100261AE04EE0A3
:1005D0002F4EB04201D1012614E02E4EB04201D17F
:1005E00002260FE02C4EB04201D103260AE02B4E2A
:1005F000B04201D1042605E0294EB04201D10526C2
:1006000000E0062606FA08F62E43CCF808604D688E
:10061000DAF80060ED03554601D51E4300E09E4325
:100620002E604D68AD0305D5DBF800601E43CBF8A6
:10063000006004E0DBF800509D43CBF800504D68AB
:10064000DEF80060ED02754601D51E4300E09E43D2
:100650002E604D68AD0205D5084D0C352E681E4341
:100660002E6004E0054E0C3635689D433560641CF1
:10067000102CFFF431AFBDE8F88F000000040140FA
:10068000000011100010024000000140000801406D
:10069000000C01400010014000140140001801400E
:1006A000001C01400AB1016170470904FBE700002A
:1006B000014880687047000008000020074810B516
:1006C000016841F010010160032000F079F800207A
:1006D00000F006F800F026F8002010BD00200240CF
:1006E00070B50D4D04464FF47A712878B1FBF0F0E7
:1006F0000A490968B1FBF0F000F082F948B9102C02
:1007000007D200222146501E00F03AF800206C600B
:1007100070BD012070BD0000080000201400002002
:10072000704700000E4808B5816941F00101816100
:10073000816901F001010091C16941F08051C161FD
:10074000C06900F080500090052000F039F805489D
:10075000416821F0E06141F00071416008BD000096
:10076000001002400000014000F01F0201219140F2
:100770004009800000F1E020C0F80011704700003F
:10078000F0B40E4B1B680C46C3F30223C3F10705FC
:10079000042D00D90425191D072901D2002300E0EA
:1007A000DB1E012606FA05F1491E214099409E40B4
:1007B000761E16403143F0BC01F0B6B90CED00E0F6
:1007C000064900F0070208684FF6FF03184040EAA8
:1007D0000220034A10430860704700000CED00E05F
:1007E0000000FA052DE9F04186B004004FF0000545
:1007F00004D094F82904002620B108E0012006B0B6
:10080000BDE8F08184F82864204600F04BF803200E
:1008100084F82904206801F0F8FB04F11001142287
:1008200088466846FFF747FD94E80F0001F0DAFBC1
:100830000021206801F0F7FB5FF0010704EB451091
:1008400080F8297000F8285F8581C67006614661CE
:100850006D1C86610F2DF1D35FF0000004EB401199
:1008600081F8296281F82802888681F82B62C1F814
:100870003862C1F83C62401CC1F840620F28EDD3D9
:10088000142241466846FFF716FD94E80F0001F078
:10089000ADFB84F8246084F82974206801F0A4FB7F
:1008A0000020ACE708B500680649884208D1064830
:1008B000C16941F40001C161C06900F40000009009
:1008C00008BD0000005C00400010024004480549DB
:1008D00000684968044AC1F30221515CC84070476E
:1008E0001400002000100240E438000804480549C4
:1008F00000684968044AC1F3C221515CC84070478E
:100900001400002000100240E438000870B5040014
:1009100005D00025A56294F8510010B104E0012033
:1009200070BD204600F034F8022084F851002068A1
:10093000016821F040010160D4E901010843D4E9D4
:1009400003121143084361690843218B01F40071CC
:100950000843E1690843216A0843A16A0843216802
:100960000860A069042101EA1040616A0843216817
:1009700048602168E06A08612068C16921F400616B
:10098000C1616565012084F85100002070BD000040
:1009900030B585B00024009401940294039400685B
:1009A0001449884223D11448816941F480518161FE
:1009B000816901F480510491816941F004018161F0
:1009C00080690E4D00F004000490A02000900220E9
:1009D00001900320039069462846FFF76FFD4020F1
:1009E000CDE90004694628460294FFF767FD05B08B
:1009F00030BD0000003001400010024000080140FE
:100A000010B5401EB0F1807F01D3012010BD4FF022
:100A1000E02460610F21601701F086F80020A061DA
:100A200007202061002010BD7047704730B590F856
:100A30003C20012A20D0012280F83C20022380F8AB
:100A40003D3003685C6824F070045C6003685C6897
:100A50000D682C435C6003689C6824F080049C60F3
:100A600003689C6849680C439C6080F83D20002125
:100A700080F83C10084630BD022030BD10B504009F
:100A800003D094F83D0010B107E0012010BD002014
:100A900084F83C00204600F00DF8022084F83D0068
:100AA000211D206801F094F8012084F83D00002009
:100AB00010BD000008B501681448B1F1804F14D092
:100AC000134A914220D1C16941F01001C161C0694E
:100AD000032200F01000009002213620FFF750FEA4
:100AE0003620BDE80840FFF73FBEC16941F0010173
:100AF000C161C069012200F00100009002211C20A8
:100B0000FFF73EFE1C20ECE708BD0000001002408D
:100B10000010004070B5044690F83C00012817D042
:100B2000012584F83C50022084F83D00206882684A
:100B300022F0770222F47F4282600868502837D082
:100B40000DDC202859D005DC88B3102841D151E0B4
:100B5000022070BD302853D040283AD13FE06028B1
:100B60002ED070280BD0B0F5805F03D0B0F5005FB9
:100B70002FD110E02068816821F0070115E0CB68D3
:100B8000D1E90121206801F069F82168886840F006
:100B9000770088601DE0CB68D1E90121206801F071
:100BA0005DF82068816841F48041816011E01EE0B9
:100BB000CA684968206801F063F85021206806E09F
:100BC000CA684968206801F06CF86021206801F06B
:100BD0004FF884F83D50002084F83C0070BDCA688E
:100BE0004968206801F04CF840212068EFE70021B7
:100BF0002068ECE710212068E9E720212068E6E77B
:100C000030212068E3E7704770B504460068016949
:100C10004FF00005C943890715D4C168C943890746
:100C200011D4E91E016101202077206880698007C6
:100C3000204602D0FFF7E7FF04E000F098F82046D6
:100C400000F096F8257720680169C943490717D451
:100C5000C168C943490713D46FF004010161022040
:100C600020772068806910F4407F204602D0FFF78B
:100C7000CAFF04E000F07BF8204600F079F8257701
:100C800020680169C943090716D4C168C943090727
:100C900012D46FF008010161042020772068C06938
:100CA0008007204602D0FFF7AEFF04E000F05FF8B7
:100CB000204600F05DF8257720680169C943C90620
:100CC00017D4C168C943C90613D46FF0100101617C
:100CD000082020772068C06910F4407F204602D0A9
:100CE000FFF791FF04E000F042F8204600F040F8E2
:100CF000257720680169C943C90708D1C168C9437C
:100D0000C90704D1891E0161204600F032F820682D
:100D10000169C943090609D4C168C943090605D454
:100D20006FF0800101612046FFF77EFE20680169B7
:100D3000C943490609D4C168C943490605D46FF0BF
:100D400040010161204600F015F820680169C9439F
:100D500089060BD4C168C943890607D46FF0200106
:100D600001612046BDE87040FFF75FBE70BD70476F
:100D7000704770477047704770B502680446106846
:100D8000D168536910F00F0F50D003F0010501F442
:100D9000907635435DD0C20705D0CA0503D5E26B16
:100DA00042F00102E263420705D5DA0703D0E26BA5
:100DB00042F00202E263820705D5DA0703D0E26B54
:100DC00042F00402E263020705D5DA0703D0E26BC2
:100DD00042F00802E263E26B002A33D0800604D5B9
:100DE000880602D5204600F084FF20684069E16B48
:100DF000C0F38010090700D428B3204600F06BFF31
:100E00002068416949061AD5416921F040014161D4
:100E1000606BA0B11B494163606BFFF795FA002836
:100E200010D0606B416BBDE870400847830610D559
:100E30008B060ED52046BDE8704000F05ABF204614
:100E4000FFF799FF70BD2046FFF795FF0020E06394
:100E500070BD030606D50B0604D52046BDE87040DC
:100E600001F04AB84006F3D54806F1D5D1682046CE
:100E700021F04001D160202184F8391000F02EF9D2
:100E800070BD0000C71C000870B5040004D094F8C1
:100E90003900002510B106E0012070BD84F83850FB
:100EA000204600F023F8242084F839002068C16827
:100EB00021F40051C160204600F066FF20680169FE
:100EC00021F4904101612068416921F02A014161CA
:100ED0002068C16841F40051C160E563202084F8B6
:100EE000390084F83A00002070BD0000F0B585B0EC
:100EF000002400940194029403940368424F02205A
:100F000042490322424D4602BB4225D18B6943F43C
:100F100080438B618B6903F4804304938B6943F0B6
:100F200004038B618969039201F0040104910102B9
:100F3000CDE9001069462846FFF7C0FACDE9006404
:100F4000694628460294FFF7B9FA03221146252084
:100F5000FFF716FC252028E02E4FBB4229D1CB6994
:100F600043F40033CB61CB6903F4003304938B6902
:100F700043F004038B618969039201F00401049139
:100F80000421CDE9001069462846FFF797FA0820AA
:100F9000CDE90004694628460294FFF78FFA022241
:100FA00003212620FFF7ECFB2620FFF7DDFB05B031
:100FB000F0BD194DAB42FAD1CB6943F48023CB612C
:100FC000CB6903F4802304938B6943F008038B619E
:100FD0008969124D01F00801CDE90321CDE90060D6
:100FE00069462846FFF76AFAE814CDE90004694625
:100FF00028460294FFF762FA012203212720FFF717
:10100000BFFB2720D1E7000000380140001002405C
:10101000000801400044004000480040000C01402E
:1010200070472DE9F843044690F839001F461646EC
:101030000D46202850D1A5B19EB194F83800012862
:101040004AD0012084F838004FF00008C4F83C80F2
:10105000212084F83900FFF72BFBA6848146E68423
:1010600026E00120BDE8F883E08C401EE084A06803
:101070004B46B0F5805F4FF000024FF080012046F4
:10108000009703D000F069FFE8B90DE000F065FFBC
:10109000C8B928882168C0F308004860206908B1F1
:1010A0006D1C05E0AD1C03E0216815F8010B4860DC
:1010B000E08C0028D8D14B460022402120460097E2
:1010C00000F04BFF08B10320CCE7202084F8390062
:1010D00084F838800020C5E70220C3E77047FEE7A8
:1010E0004218491E521E824202D922EA010070476C
:1010F0008843704710B520491020086020491F48D8
:10110000086001F02FFC040007D01EA000F08EFF45
:1011100021461EA000F08AFF25E002F045F90400F8
:1011200004D018A000F082FF1FA01AE002F0A6F978
:1011300001F03CFE002817D101F01EFC002813D15D
:1011400001F01CFD040004D00EA000F06FFF1BA0F6
:1011500007E001F039FF040007D00AA000F066FFA5
:101160001BA000F063FF204610BD02F05DFBBDE850
:10117000104001F0D3BB0000880000207810002050
:10118000280000205B4552525D2000006F734D65C2
:101190006D53797374656D496E6974206572726FF1
:1011A000722025640A0000006F735461736B496EEE
:1011B0006974206572726F720A0000006F73517556
:1011C000657565496E6974206572726F720A0000F8
:1011D0006F735377546D72496E6974206572726FC4
:1011E000720A00004268C1E9000242681160416071
:1011F00070474268C1E9000242681160416070476F
:101200004268C1E90002426811604160704742686B
:10121000C1E900024268116041607047D0E90012E4
:101220001160D0E900124A600021416001607047FE
:101230000068FFF7ECBF70B505000C464FF00000EA
:101240000CD0002C0AD0284601F033FE002805D12E
:1012500021462846BDE8704001F0E2B970BD01F0BA
:101260006FBA70B50C4605000AD04CB101F052FEC1
:10127000012807D02146284601F080FA012801D034
:10128000012070BD002070BD2DE9F84FDFF898A057
:101290000F460500DAF80040A04603D0502F01D9D0
:1012A000A80702D00120BDE8F88FFEF781FF814634
:1012B000EE1918E0A068A542204401D8A64203D840
:1012C00085420ED286420CD318A000F0AFFEA06873
:1012D0003246204400902346294616A000F0A6FE80
:1012E0001BE0A046E468002CE4D13946284601F012
:1012F000C7FA90B1B7F5805F03D3284601F03AFEF4
:1013000058B1DAF8001061B1C8F80C500020E8605C
:101310004846FEF755FF0020C5E74846FEF750FF58
:10132000C0E7CAF80050F1E72C0000205B4552529C
:101330005D200000706F6F6C205B25702C20307872
:1013400025782920636F6E666C69637420776974F1
:101350006820706F6F6C205B25702C2030782578AA
:10136000290A00002DE9F0470D4608985FEA0209B6
:1013700000F104018FB206D04FF6FB71884205D907
:101380002648BDE8F08725480930FAE7E5B1D8B12D
:10139000DFF88C8005FB07F1D8F80000FFF74BFF62
:1013A000060014D0FEF704FF1E4A01465068904222
:1013B00010D10846FEF704FF3146D8F80000FFF7C9
:1013C00050FF1648401CDCE714480A30D9E71348A0
:1013D000401ED6E7D0E90023A0F11C041A60D0E932
:1013E00000235360E5802781012326600022A3802B
:1013F00022826582A281E281A0F10802526012601D
:10140000406000600830406000600846FEF7D8FE8B
:1014100061890020C9F80010B3E70000030600024C
:101420002800002048000020F8B51C4615460E464E
:10143000074601F085FC002806D100212B463246E4
:101440003846009401F0C8FBF8BD7FB582B01C4659
:101450000D46064604AA01F08DFC002806D10321A2
:1014600004AB2A463046009401F0B6FB06B070BDCE
:1014700010B5FEF79DFE044601F00AFB0A49283824
:1014800048600968814202D00848008820B120469F
:10149000BDE81040FEF794BE2046FEF791FEBDE881
:1014A0001040FEF790BE0000980000207800002059
:1014B00010B502F04BF9040006D005A000F0B6FD0F
:1014C00005A000F0B3FD01E0FEF74EFE204610BD82
:1014D0005B4552525D2000006F735469636B537417
:1014E000617274206572726F720A000070B50446F2
:1014F00000F034F8002829D1174D2068C0EBC00057
:10150000E96800EB400001EB8004FEF751FE06465F
:10151000A08820F0020040F00400A080E18804F1DF
:10152000280001F071FA01F0B3FA05F12001283822
:101530004860EA695AB12A884AB90968814206D0E6
:101540003046FEF73DFE01F02FFC002070BD304616
:10155000FEF736FEF9E70000780000202DE9F0479D
:101560000D465FEA00084FF0FF3A16D0C5B1286972
:10157000C8B12968D1B1AA8846481F2A0BD802D120
:10158000454A914207D14549454AE868511A88427F
:101590000FD940481D30BDE8F0873E48001DFAE7EE
:1015A0003C48801EF7E73B48801CF4E73948401C64
:1015B000F1E710B94FF43470E8600821FFF790FDAF
:1015C000E860B0F5987F02D23248C01CE3E7FEF72E
:1015D000EFFD06464FF00009324C10E0A1F128075C
:1015E0000846FFF71BFE2F4807F128010838FFF7D0
:1015F0000EFE2A48F968FFF734FEC7F80C906168C0
:10160000A142EBD1274908394868884202D1214CD0
:101610000E3439E0A0F12804FFF700FE3046FEF753
:10162000CFFD276908221D48E968FFF718FE06006C
:1016300020D002463846E96802F0FEF82060A8682B
:10164000E6602062E868C4F81890C4F81C90022193
:10165000A060A180A988E1802968C4F83CA0C4F8F2
:10166000489061612969C4F8509061620020C8F80F
:10167000007090E7FEF79CFD06460A4804F1280139
:101680000838FFF7C4FD084C3046FEF799FD2046A8
:1016900081E70000030200021929000878100020E9
:1016A00000000120B0000020000200032DE9F047F7
:1016B000494D07464FF0FF3A6869874202D14748D3
:1016C000BDE8F087A869874202D144480D30F7E7AA
:1016D0002869874202D341480D38F1E7FEF768FDDB
:1016E0008046C7EBC700E96800EB400001EB8004CF
:1016F000A688F00706D0394C40460A3CFEF760FD4C
:101700002046DDE7F0064FF0000903D5288808B130
:10171000A5F80090700708D504F1280001F058F9E9
:10172000A08820F00400A08007E042F208000642F2
:1017300003D004F12800FFF771FD16F0600F02D00E
:10174000204602F03BF8A08820F0020040F00100A3
:10175000A080C4F83CA0C4F8489001F099F91E4E4E
:101760004FF0010A2036283870602079C0061FD556
:1017700004F1280106F11800FFF75AFD2869E9680D
:10178000C0EBC00000EB400001EB8000306007615F
:101790003168A08888803068E168C160616A416210
:1017A000A4F804A04046FEF70BFD01F0FDFA10E09E
:1017B0000948A4F804A004F128013030FFF727FD00
:1017C0000748E168FFF74DFD4046C4F80C90FEF76E
:1017D000F7FC002074E700007800002014020002EB
:1017E0007810002070B5194CA4F12002206812690D
:1017F0000169914201D3164870BD0079400701D4B8
:10180000002070BDFEF7D4FC05462068C08801F0BA
:101810002DF9012813D920682830FFF7FFFC206834
:10182000818841F0040181802068C188283001F05E
:10183000EBF82846FEF7C4FCFFF71AFEE0E728465F
:10184000FEF7BEFC0248093070BD00009800002081
:10185000070200020149D1E900017047D0000020D1
:101860002DE9F04F85B0002436480094019402948D
:101870000394816941F020018161816901F02001B7
:101880000491816941F004018161816901F00401E1
:101890000491816941F008018161816901F00801C9
:1018A0000491816941F0100181618069DFF89890AD
:1018B00000F010000490002212214846FEF7F2FECC
:1018C000DFF888A04FF45867002239465046FEF7EB
:1018D000E9FEDFF87CB04FF44678002241465846D6
:1018E000FEF7E0FE122001250226CDE90005CDE934
:1018F000024669464846FEF7E1FD00970396CDE9AA
:10190000015469465046FEF7D9FD2803CDE900048D
:10191000694650460294FEF7D1FDCDF8008003964B
:10192000CDE9015469465846FEF7C8FD6020CDE96F
:101930000004694658460294FEF7C0FD05B0BDE8B4
:10194000F08F00000010024000080140001001402C
:10195000000C0140104810B50E4901604FF482712F
:10196000416000218160C1604FF400720161C0E9F3
:1019700005122022C0E90721416281620A21C16269
:10198000FEF7C4FF002803D0BDE81040FEF7DABC24
:1019900010BD000000300140E800002010B586B006
:1019A00000241648009401940294039404944FF088
:1019B00080410594016041F61F41C0E901140A21EC
:1019C000C0E903148461FFF759F808B1FEF7BAFCC7
:1019D0004FF48050009069460848FFF79BF808B123
:1019E000FEF7B0FC049404A904480594FFF71EF820
:1019F000002801D0FEF7A6FC06B010BD4001002073
:101A00001CB500240F4800940D490194016041F673
:101A10001F41C0E901144FF461718461C160FFF797
:101A20002DF808B1FEF78EFC009469460548019434
:101A3000FEF7FCFF002801D0FEF784FC1CBD00006F
:101A400000100040800100200C4810B50A490160D8
:101A50004FF4E1314160002181600C22C160C0E996
:101A600004128161C161FFF70FFA002803D0BDE8BD
:101A70001040FEF767BC10BD00380140C0010020D7
:101A80000C4810B50A4901604FF4E1314160002172
:101A900081600C22C160C0E904128161C161FFF75D
:101AA000F3F9002803D0BDE81040FEF74BBC10BD91
:101AB00000440040000200200C4810B50A490160B3
:101AC0004FF416514160002181600C22C160C0E9D1
:101AD00004128161C161FFF7D7F9002803D0BDE886
:101AE0001040FEF72FBC10BD00480040400200200F
:101AF0000B4810B50949016008214160022181604D
:101B000000218161C1610162FEF76CFE002803D0F3
:101B1000BDE81040FEF716BC10BD0000005C0040A0
:101B200080020020FEE770470907090E002806DA48
:101B300000F00F0000F1E02080F8141D704700F164
:101B4000E02080F8001470477047000006480068E5
:101B500008B101F0E7BD0548D0E90012491C42F187
:101B60000002C0E900127047C0000020D000002031
:101B70000D48016841F00101016041680B4A1140C4
:101B8000416001680A4A11400160016821F4802126
:101B90000160416821F4FE0141604FF41F01816042
:101BA0000449C00308607047001002400000FFF8BD
:101BB000FFFFF6FE08ED00E00148FFF725B8000042
:101BC000400100200148FFF71FB8000080010020FD
:101BD000F0B502681C4B1D4D1D4E1E4F1E4C4FF0A4
:101BE000804C984209D0A04207D0604505D0A84259
:101BF00003D0B04201D0B84204D122F0700E4A683E
:101C000042EA0E02984209D0A04207D0604505D0B2
:101C1000A84203D0B04201D0B84203D122F44075AB
:101C2000CA682A4322F080054A692A4302608A680A
:101C3000C2620A688262984201D0A04201D1096959
:101C4000016301214161F0BD002C0140000400400E
:101C500000080040000C00400034014010B58468CA
:101C600042EA032224F47F440A432243826010BDE7
:101C7000826822F070020A4342F0070181607047D7
:101C800010B5036A046A24F001040462846924F034
:101C9000F00444EA021423F00A020A438461026257
:101CA00010BD10B5036A23F0100303628369046A50
:101CB00023F4704343EA023224F0A00343EA011103
:101CC0008261016210BD10B5406A0021C185C184E6
:101CD000FFF751F810BD0168CA6822F49072CA601B
:101CE00001684A6922F001024A61202180F83A1015
:101CF000704710B590F83A10222901D0022010BD8B
:101D00008168B1F5805F11D00169002901681FD099
:101D1000496801F07F03816A4A1C82620B70C18DA1
:101D2000491E0904090CC18518D02BE00269816A9B
:101D3000002A0268526805D0D2B20A80816A491C22
:101D40008162ECE7C2F308020A80816A891CF7E726
:101D50004A68816A4B1C83620A70E0E70168CA68BE
:101D600022F02002CA600168CA6822F48072CA6048
:101D700001684A6922F001024A61202180F83A1084
:101D8000FFF74EF9002010BD2DE9F0410446006830
:101D90000169E26821F44051114301612169A068A1
:101DA0000843616908432168CA6841F20C639A4399
:101DB0000243CA6020684169A26921F4407111435D
:101DC00041614C4920686425322688423CD1FEF7A7
:101DD0008DFD00EBC00101EB001061688900B0FBD4
:101DE000F1F7FEF783FD00EBC00101EB0010616825
:101DF000B0468900B0FBF1F0B0FBF5F06FF01801D0
:101E0000484307EB800106EB0110B0FBF5F000F052
:101E1000F006FEF76BFD00EBC00101EB00106168FE
:101E20008900B0FBF1F0B0FBF5F006EB0016FEF711
:101E30005DFD00EBC00101EB001061688900B0FBA3
:101E4000F1F7FEF753FD3BE0FEF740FD00EBC0016C
:101E500001EB001061688900B0FBF1F7FEF736FD79
:101E600000EBC00101EB00106168B0468900B0FBD7
:101E7000F1F0B0FBF5F06FF01801484307EB80017B
:101E800006EB0110B0FBF5F000F0F006FEF71EFDCA
:101E900000EBC00101EB001061688900B0FBF1F0BC
:101EA000B0FBF5F006EB0016FEF710FD00EBC001ED
:101EB00001EB001061688900B0FBF1F7FEF706FD49
:101EC00000EBC00101EB001061688900B0FBF1F08C
:101ED000B0FBF5F06FF01801484307EB800108EB09
:101EE0000110B0FBF5F0216800F00F00304488606D
:101EF000BDE8F0810038014090F83910212901D067
:101F0000022070478168B1F5805F016A0BD04A1CDE
:101F10000262026809785160C18C491E0904090CEB
:101F2000C1840ED017E009880268C1F3080151602E
:101F300001690029016A02D0491C0162ECE7891C91
:101F4000FBE70168CA6822F08002CA600068C168C5
:101F500041F04001C160002070472DE9F0419846F2
:101F600017460E460446069D1DE0681C1BD02DB189
:101F7000FEF79EFBA0EB0800A84214D92068C168B8
:101F800021F4D071C1602068416921F001014161F3
:101F9000202084F8390084F83A00002084F83800C2
:101FA0000320BDE8F0812068006836EA000004D014
:101FB0000020B842D9D00020F3E70120F9E7000063
:101FC0000148FEF7D9BE0000C00100200148FEF71D
:101FD000D3BE0000000200200148FEF7CDBE000085
:101FE00040020020002070470020704700B501210A
:101FF000A0F840100021A0F84010A0F84410A0F86C
:10200000501000F009F8002000BD30F8401F21F406
:102010003D4101800020704730F8401F41F43F41AE
:1020200001800020704700207047FEE70FB4054B89
:1020300010B503A9044A029800F018F810BC5DF826
:1020400014FB000009250008E400002002E008C895
:10205000121F08C1002AFAD170477047002001E022
:1020600001C1121F002AFBD1704700002DE9FF4F6C
:102070008DB00F460546002606E025280BD0DDE989
:102080000F1290476D1C761C28780028F5D111B0EE
:102090003046BDE8F08F0024A246A1460122EC495B
:1020A00000E0044315F8013F203B02FA03F0084228
:1020B000F7D128782A2810D06FF02F022878A0F1C5
:1020C0003001092914D80AEB8A0102EB410144F0DE
:1020D000020400EB010A6D1CF0E701CF5FEA000A81
:1020E00003D544F40054CAF1000A44F002046D1C04
:1020F00028782E2817D115F8010F44F004042A2857
:102100000ED06FF02F022878A0F1300109290AD8EB
:1021100009EB890102EB410100EB01096D1CF2E7BB
:1021200057F8049B6D1C28786C280FD006DC4C28CF
:1021300017D068280DD06A2814D104E0742810D074
:102140007A280FD10DE044F400140AE044F480141E
:1021500001E044F440146978814202D104F580140E
:102160006D1C6D1C2A786E2A1FD00CDC632A31D0BE
:1021700004DC002A8BD0582A11D1A3E0642A68D04D
:10218000692A0CD165E0732A2ED004DC6F2A73D043
:10219000702A04D19BE0752A6FD0782A6ED0104641
:1021A000DDE90F129047761C50E1C4F3025002287B
:1021B00006D0032809D0042801CF09D0066045E1E4
:1021C00001CFF117C0E9006140E101CF06803DE198
:1021D00006703BE117F8040B8DF8000000208DF825
:1021E0000100EB46012003E057F804BB4FF0FF303D
:1021F00061074FF0000102D40DE008F101018846AB
:1022000049450FDA8045F8DB1BF808100029F4D1A6
:1022100008E008F1010188468142FADB1BF808104A
:102220000029F6D1DDE90F23AAEB080081462146FB
:1022300000F036F9304400EB080604E0DDE90F1247
:102240001BF8010B9047B8F10108F7D22146484628
:10225000F7E00A21C4F302534FF0000B0891022B60
:1022600004D001CFC117032B09D00AE0FF1D27F0CE
:102270000707F7E8020108E032E01FE020E000B2C3
:10228000C117042B01D140B2C117031E71F1000325
:1022900007DA4FF0000CD0EB0C006CEB01012D23A2
:1022A00002E0230504D52B238DF82430012303E01D
:1022B000E30701D02023F7E7984658E00A2110E011
:1022C00010210EE010204FF0000B08900CE01021C0
:1022D0004FF0000B44F004044FF00809089103E0AC
:1022E00008214FF0000B0891C4F30253022B04D0D5
:1022F00001CF0021032B06D006E0FF1D27F00707C2
:10230000F7E8020103E080B2042B00D1C0B24FF025
:10231000000823072BD5702A07D0DDF820C08CF0E9
:10232000100C5CEA0B0C05D00EE040238DF8243035
:10233000012308E050EA010306D030238DF8243051
:102340008DF8252002239846DDF820C08CF0080C7B
:102350005CEA0B0C0BD150EA010301D1630706D5EF
:1023600030238DF824304FF00108A9F10109582AD3
:1023700004D038A20B9208AA0A920BE03AA2F9E71D
:102380005B46089AFDF756FF0B9B9B5C0A9A521E10
:102390000A92137050EA0102F2D10A98ADEB0000E4
:1023A00000F1200B600702D524F4803401E04FF0E7
:1023B0000109D94502DDA9EB0B0000E0002000EB8C
:1023C0000B0141440890AAEB010AE00306D4DDE9C1
:1023D0000F232146504600F063F806444FF00009F1
:1023E00008E009A911F80900DDE90F12904709F189
:1023F0000109761CC145F4DBE0030CD5DDE90F23B0
:102400002146504600F04CF8064404E0DDE90F1286
:1024100030209047761C0899481E08900029F5DC6A
:1024200008E00A980A990078491C0A91DDE90F1220
:102430009047761CBBF10001ABF1010BF1DC2146AA
:102440005046DDE90F2300F019F806446D1C1BE629
:10245000092801003031323334353637383961627A
:10246000636465660000000030313233343536373E
:102470003839414243444546000000002DE9F0410F
:10248000044600251E461746880404D405E0394654
:102490002020B0476D1C641EF9D52846BDE8F081A8
:1024A0002DE9F041044600251E469046C80301D59B
:1024B000302700E02027880404D505E0414638464F
:1024C000B0476D1C641EF9D52846BDE8F0810000B8
:1024D00000B587B007A00490094800900120ADF82E
:1024E00004004FF49870039069460648FEF7FEFF1B
:1024F00007B000BD7461736B5F4C45445F310000F1
:10250000B93800080400002013B54FF6FF7301220C
:1025100069460248FEF785FD00981CBDC0010020F9
:10252000FEF7CCF8FDF7A8FFFEF7E4FDFFF7D0FFBC
:10253000FEF7BEFFFFF794F9FFF70CFAFFF760FA1A
:10254000FFF782FAFFF79CFAFFF7B6FAFFF7D0FA27
:10255000FFF724FAFEE710B586B00446142168465A
:10256000FDF7C2FE6946204600F0B2F906B010BD84
:102570004A0900EB82020068121D884206D901F068
:102580001F0301211068994088431060704730B5DF
:1025900002C81F314B0900210A4614E00468641C7C
:1025A0000FD00468E34301E05B08491C002BFBD11A
:1025B0004B1E01259D402C43046001EB4210401E40
:1025C00030BD001D521C9A42E8D34FF0FF3030BDA1
:1025D00002688A4201D8002070474A0900EB820055
:1025E00001F01F024068012191400840F4D0012011
:1025F000704770B5054601600C4601F11F00C10827
:10260000281DFDF771FEE00608D004F01F014FF011
:10261000FF308840610905EB8101486070BD000012
:102620002DE9F04100240D462746061E5ED0FDF739
:10263000BFFD8046ED1C25F00305706810E0416881
:102640004A000CD421F04041A94208D324B1626869
:1026500022F040428A4202D90446A94221D00068B1
:102660000028ECD1ECB3606820F04040401B082803
:1026700017D9621952F80C0F20F0804042F8040973
:102680006168491B083961F31D00C2E90040214619
:10269000304600F012F928B30260606865F31D004F
:1026A000606054F8040F20F0004040F0804001C406
:1026B000144827468168294408318160C2689142E4
:1026C00000D9C1600168491C01607068406820F051
:1026D0004040B0F5806F02D23046FFF73CFF4046E5
:1026E00001E005E00CE0FDF76BFD3846BDE8F08148
:1026F00005A0FFF79BFC294605A0FFF797FCE4E740
:102700007260CAE7180000205B4552525D2000004D
:1027100074686572652773206E6F7420656E6F75BF
:1027200067682077686F6C6520746F20616C6C6FD0
:1027300063202578204279746573210A0000000027
:1027400070B5144628B121B1042C02D3651E2C4269
:1027500001D0002070BD2144091FFFF761FF002850
:10276000F8D00119491EA9438842F3D0081A40F055
:10277000004041F8040C084670BD00002DE9F0410E
:1027800001260C46050018D0BCB154F8040C0028F2
:1027900002DA20F000400C1A2868A04203D86868CA
:1027A0000830A0420BD22EA0FFF740FC21462EA0FD
:1027B000FFF73CFC0020BDE8F0810120FBE7FDF7BE
:1027C000F7FCA4F108020746506840000ED52868BF
:1027D00090420DD01168814208D368680830814268
:1027E00004D8284600F069F8904201D0002631E074
:1027F0005068224B20F0804020F0404150609868A3
:1028000001F10804844204D8401A0838986000E0B6
:102810000246106868B141684900F9D509E054687A
:102820002144083161F31D0454606968814200D17C
:102830006A601146284600F040F810B141684C002B
:10284000EDD51146284600F038F800B1026058680E
:10285000401C58603846FDF7B3FC3046ABE700003B
:102860005B4552525D20000030782578206F7574EA
:10287000206F662072616E6765210A0018000020D3
:1028800070B50E460446050001D0582E01D8002030
:1028900070BD2046FDF728FD50342C60C5E9014687
:1028A0006068583E20F080406060002020606068D2
:1028B00066F31D006060012070BD4068884201D150
:1028C00000207047486820F04040084408307047B6
:1028D00030B5002278B171B1436807E05C686500EB
:1028E00003D524F04044224408321B68002BF5D164
:1028F0008368934201D2012030BD4A60806808603D
:10290000801A886003480268CA6040680861002035
:1029100030BD000018000020FEE7000000B587B0C1
:1029200018216846FDF7E0FC074800904FF4A060CE
:10293000039006A004901F20ADF8040069460648E5
:10294000FEF7D4FD07B000BD1929000849646C6585
:10295000436F7265303030008C000020EFF305804B
:102960007047000002480349091AFEF78DBC0000B9
:1029700078100020000001202DE9F04111484FF4AB
:10298000B4714060006010480068FEF754FC0D4DC3
:102990002D1F286098B1002426462F1D296804EBBE
:1029A000440001EBC0014C6001F8086B3868FEF789
:1029B00019FC641C0F2CF1D30020BDE8F081034802
:1029C000FBE700003400002028000020001D00026A
:1029D000D0E900121160D0E900124A600021416084
:1029E000016030F8221C0748426802EBC1025368BC
:1029F000934205D14FF00042CA4001689143016003
:102A0000704700003C0000200A4B10B55A6802EBEA
:102A1000C1025468944205D14FF00044CC4019687B
:102A20000C431C6011684A68C0E900124A681060D3
:102A3000486010BD3C00002010B50A4800244FF447
:102A400080710068FEF7F7FB07490028486007D04F
:102A5000486800EBC400641C40600060202CF7D381
:102A600010BD0000280000203C000020074903465C
:102A700000204A6802EBC30102EBC302496801E08F
:102A80004968401C8A42FBD1704700003C0000208E
:102A90000548016831B14068B1FA81F100EBC1002D
:102AA00040687047002070473C0000202DE9F0414D
:102AB0001E460446134611F003004FF000050BD0EC
:102AC000012812D0032817D022A0FFF7AFFABDE8E3
:102AD000F04122A0FFF7AABAA089E788421CBA42B7
:102AE00001D1A58110E0A2810EE0A08900B9E088A3
:102AF000401EA08180B207E0E089E788421CBA420C
:102B000001D1E58100E0E2812289256800FB0255C0
:102B100048074FEAC17007D518B118682860BDE8AA
:102B2000F08128681860FAE750B1194628463268E3
:102B3000FDF7C1FB20892D1F284431680160EEE7B5
:102B4000281F10442946046818462246FDF7B3FBA7
:102B50003460E4E75B4552525D200000696E7661A7
:102B60006C6964207175657565206F70657261743C
:102B7000652074797065210A0000000070B5134863
:102B80004FF4DC7421460068FEF755FB104D2860B9
:102B9000D0B12146FDF7A8FB281D0024406000604D
:102BA0004FEA000604EB4400296800EBC40001EB87
:102BB00080014C811C313068FEF71BFB641CA4B201
:102BC0000A2CEFD3002070BD024870BD2800002001
:102BD00044000020010600022DE9FF5F9A460F46DF
:102BE0000446002501F00106DDF838B0FDF7E0FAF3
:102BF0004F49814604EB4400096800EBC40001EB37
:102C00008004A08850B1F8072089DAF80010A0F1FC
:102C1000040006D0814209D9464D83E0454D0B3D65
:102C200080E0814202D2434D0A357BE004EB46004E
:102C3000018A91B1491E0182534639462046029AC3
:102C4000FFF734FF002E37D04FF0000004EBC00038
:102C5000816934D14FF0010032E0BBF1000F05D0A3
:102C60003548008850B1334D0F3D5BE0F80702D086
:102C7000304D6D1C56E02F4D083553E02F485A4615
:102C80004FF40051D0F8008004EBC600143000F07F
:102C900003FD4846FDF794FAFEF7EAFBFDF788FAD4
:102CA0008146B8F804004106C6D5224D20F0400107
:102CB000A8F804100E3D35E04FF00100C6E70020F3
:102CC00004EBC0001430814215D096B15FF00000D3
:102CD00004EBC0004FF400518069283800F002FD79
:102CE0004846FDF76DFAFEF7C3FB002004B0BDE8CF
:102CF000F09F0120ECE7002E0CD000BF4FF0000049
:102D000004EB4000008A00F1010080B205D14FF0D1
:102D1000010104E04FF00100F2E74FF0000104EB85
:102D2000410108824846FDF74BFA2846DEE70000DD
:102D300044000020150600027800002098000020C2
:102D400010B50A2801D30A4810BD49B142B1106834
:102D500048B15BB1FFF702FE40B105480A3010BD33
:102D60000348401C10BD0248801C10BD002010BD4F
:102D70000E06000210B50A2801D30A4810BD41B161
:102D8000106848B15BB1FFF7E9FD40B10548401F4D
:102D900010BD0448001D10BD0248401D10BD00209C
:102DA00010BD00000E060002FDF70DBA2DE9F0413E
:102DB00010484FF4A071406000600F480068FEF7B3
:102DC0003AFA0C4D2D1F286090B1002426462F1D85
:102DD000286800EB0411CC8021F8086B3868FEF7F6
:102DE0000FFA641CA4B2142CF2D30020BDE8F081C9
:102DF0000248FBE7540000202800002000070002E2
:102E000010B504468068FFF7C2FB002801DA0020F5
:102E100010BDD4E9001201FB002010BD10B503461F
:102E20004068081A1968B0FBF1F4B0FBF1F201FB3D
:102E3000120068B998680168A14209D92146FFF7D4
:102E4000C7FB28B121469868FFF792FB012010BD0F
:102E5000002010BD2DE9F0411F460B4607F11F0170
:102E6000042404EBD1018E18511E9D18761E6D1E90
:102E70008E438D4305FB07610C31FFF7D1FB040046
:102E800008D004F10C0081192560C4E9011039460D
:102E9000FFF7AFFB2046BDE8F0814DF6DE6220F87B
:102EA000022B00F8021B002100F8011C70471030B3
:102EB000704770B50E46FFF7FAFF00240546802ED6
:102EC00026D805EB04100068B0421ED3FDF770F958
:102ED00005EB04140646D4E90101814211D2E068F1
:102EE00078B1FFF78DFF050006D02168FFF7D5FF09
:102EF0000546A068401CA0603046FDF761F92846F1
:102F000070BD3046FDF75CF902E0641C042CD8D398
:102F1000002070BD2DE9F0410C46FFF7C8FF0746C1
:102F200034F8040D0026A0F55E413546DE391ED189
:102F300094F8020007EB05110968884214D8FDF7E0
:102F400037F907EB051580462146E868FFF766FF6D
:102F5000012803D1A8680126401EA8604046FDF75D
:102F60002FF93046BDE8F0816D1C042DE2D300201E
:102F7000F8E700002DE9F05F8346FFF798FF002493
:102F800007462646A1464FF010084FF4007A00BFCE
:102F900008FA04F1BAFBF1F307EB041585E80A021D
:102FA000E86808B1761C05E004225846091DFFF7C1
:102FB00051FFE860641C042CEAD316B10020BDE880
:102FC000F09F0120FBE70000F8B540211A48FDF70B
:102FD0008BF91A4D1A4800274FF4E071AF610E4685
:102FE0000068FEF728F904001CD03146FDF77CF993
:102FF0002C616C61278120461C34012121810460F1
:103000002046491C89B21C341029F7D308200B4AEA
:10301000002300900C3210211846FEF7A3F920B1CE
:103020000848F8BD0748001FF8BD00F0EFF8002879
:10303000FAD00448401CF8BDE00600205C000020E7
:10304000280000200B0300022DE9FC4F0023591E2D
:10305000019100910169C160017A5B4C01F00F069A
:103060005A4D54F826104FF0030B4FF01009AD697C
:103070004A461F46DC46BBEB517F68D141F0004118
:1030800044F8261021F07F4A0021A6465EF821C0B0
:103090003CF07F442ED0B1422CD0BBEB9C7F29D199
:1030A000D446544506D3B4FBFCF80AFB184CBCF1DB
:1030B000000F0AD0D44654451CD2BCFBF4F804FBE4
:1030C00018ACBCF1000F0BD014E0B4FBFAF8DDF83B
:1030D00004C0E0450ED2B4FBFAF48946019409E03D
:1030E000BAFBF4F8DDF800C0E04503D2BAFBF4F215
:1030F00000920A46491C89B21029C7D33349B9F155
:10310000100F09691AD0C9EBC9042A4601EB8401E2
:1031100006E0D4680E8927441489B44203D01268AB
:10312000002AF6D134E062B31169CC1B0169B4FB0B
:10313000F1F201FB1242891AC16029E0102A27D05E
:103140000023C2EBC202C36001EB82031EE0022235
:10315000B2EB517F1CD141F0004144F826102946C2
:1031600062460CE00E690769BE4207D10E7A06F08E
:103170000F0654F82660B2EB967F03D00968002949
:10318000F0D105E021B100220B46C26019680BE0C6
:10319000294607E0CA68C468A24205D8A21A0B46AD
:1031A000C26009680029F5D1016019B1CA68C46814
:1031B000121BCA6023B1186002210171BDE8FC8FA7
:1031C00002498861F8E70000E00600205C0000206A
:1031D0000EB508200C4C4FF0FF3500902B466A4688
:1031E00001A9E068FEF720F90028F7D10098082827
:1031F000F4D101980028F1D0FEF72CFBDDE9011095
:103200008847FEF727FBE9E75C00002000B587B0A0
:1032100018216846FDF768F8074800904FF4805081
:10322000039006A004900020ADF80400694606480B
:10323000FEF75CF907B000BDD13100085377745F29
:103240005461736B00000000900000207CB5184DA5
:1032500026E02068A861A0690090606901900023C1
:1032600008226946E868FEF7F0F8607920B1012885
:1032700010D0022814D111E0204600F01BF820895C
:103280004FF6E071884201D2103001E000F00F00EB
:10329000208105E02046FFF7D7FE01E001202071E4
:1032A000AC69002C02D0E0680028D2D07CBD0000C0
:1032B0005C00002006494A690260486100210171F2
:1032C000007A044A00F00F0042F820107047000016
:1032D0005C000020E0060020054810B5806928B198
:1032E000C168491EC16001D1FFF7B0FF002010BDC9
:1032F0005C000020F0B4024611F01F034FEA5110A9
:1033000000D1401E916B1B4C01F0784101432079A4
:10331000184400F01F0060F3DF619163216801EB46
:10332000C00302F130015868984201D118461DE0EF
:103330003038956B876B25F0784427F07846A642A5
:103340000AD8A41B05F078452C439463446BA4F180
:1033500030009C42EDD108E027F0784325F0784218
:103360009A1A07F078431A4382633030F0BCFDF7B5
:103370005FBF0000B800002070B5094DC0EBC00071
:1033800000EB4000E96801EB80046169206A88472E
:10339000002028802069BDE87040FEF787B9000052
:1033A0007800002072B6FEE72DE9F041304D542040
:1033B000304F2C69641C444321463868FDF73BFFBD
:1033C000DFF8B480E860E8B32146FCF78DFF05F133
:1033D0002800002440600060083040600060083031
:1033E0005FF0010640600060C4EBC400E96800EBD8
:1033F000400001EB80011E488E800C613030283186
:10340000FDF716FF641C0F2CEED900266E622869AA
:10341000E968C0EBC00000EB400001EB80011448FC
:10342000203001600C610268112191800068202128
:10343000C180FFF701FB4FF480710D463868FDF73E
:10344000FAFE00E012E0040010D02946FCF74CFF21
:103450000748403004608680002064602460401C7F
:1034600008342028F9D30020BDE8F0814046FBE76E
:1034700078000020280000200002000310B54FF45F
:10348000AB710648FCF730FF04490A204870054834
:10349000034941600021816010BD00002007002029
:1034A0005D350008780000202DE9F0412A4800270A
:1034B0000179491C01F01F018180006800EBC10502
:1034C0006C68AC4245D0303C04F13000A84206D0D4
:1034D000A06BA688400108D0A06B401EA063002FFF
:1034E00037D0BDE8F041FDF7C3BF04F13000FDF770
:1034F00095FE30070BD5A08820F00800A08004F1CD
:103500002800FDF78BFE0020A061E06113E070054C
:1035100003D5A08820F480600CE0B00407D504F146
:103520002800FDF77BFEA08820F4005002E0A08870
:1035300020F02000A080B00709D4A08840F004004B
:10354000A080E18804F12800FFF75EFA01276C688B
:10355000B9E7BDE8F0810000B800002010B52A4CA2
:103560002068C0680068B0F1CC3F08D027A0FEF703
:103570005DFD20680269416A26A0FEF757FD60687C
:10358000C2680168914203D980681044884211D210
:103590001EA0FEF74BFD60680269416A27A0FEF796
:1035A00045FD1AA0FEF742FD6068C26801682CA0C4
:1035B000FEF73CFD6068374C018A227804EB42023A
:1035C0005180416A2078202204EB40101630FCF72D
:1035D00072FE2178002004EB411181F8350021783A
:1035E000491CC9B221700A2904D12070607840F0CA
:1035F00080006070044820388068002802D0BDE850
:103600001040004710BD0000980000205B4552525A
:103610005D20000043555252454E54207461736B37
:103620002049443A2025733A256420737461636B02
:10363000206F766572666C6F77210A0048494748AB
:10364000455354207461736B2049443A2025733AE2
:103650002564205350206572726F72210A000000A9
:1036600048494748455354207461736B2053746133
:10367000636B506F696E7465723A203078257820DC
:10368000546F704F66537461636B3A2030782578BD
:103690000A000000200700202DE9F0418046104874
:1036A00016460F46046804F128000546FFF790F916
:1036B000A088294620F004003843A0804046FDF74A
:1036C000B7FD701C09D0A088314640F04000A080B2
:1036D0002046BDE8F041FFF70DBEBDE8F0810000D7
:1036E0009800002070B5044628300D460646FDF7C8
:1036F00095FDA088A843A080400606D5204600F08E
:103700005DF8A08820F04000A080A088810708D440
:1037100040F00400A080E1883046BDE87040FFF72B
:1037200073B970BD084810B5D0E90221521C41F1AF
:103730000001C0E9022100F05BF8FFF7B5FEBDE82B
:103740001040FFF7C9BD0000C8000020154810B5A3
:10375000006818B14FF47A71884201D2124810BD46
:10376000B0FBF1F2114B124CB0FBF1F01A600022E9
:10377000C4E900220122401EB0F1807F02D30A4832
:10378000801C10BD4FF0E02148610A4BF02083F807
:10379000140D00208861072008610748026000209E
:1037A00010BD00001400002000040002D80000201A
:1037B000D00000200FE000E0C000002030B40B4B30
:1037C000826B1B68D10E03EBC103416B994209D098
:1037D0008B6822F0784223F07844224403F0784347
:1037E0001A438A6030BC3030FDF718BDB8000020A5
:1037F0000B480A4902680B480B680068934204D0E2
:103800000A60CB88421E1A448A808A8880B282422B
:1038100003D100200860FDF7E5BF7047DC00002001
:1038200098000020D00000200248002101600A21F9
:10383000C1807047DC00002070B5144605460E4676
:103840004FF0CA322046FCF748FD4FF0CC302060E4
:10385000A0194FF0043140F8441D4FF0053141608C
:103860004FF0063181604FF00731C1604FF00831F1
:1038700001614FF0093141614FF0103181614FF02A
:103880001131C1610021C0E908154FF00131816299
:103890004900C1624FF0033101634FF012314163BF
:1038A000034981630349C1634FF08071016470BDB6
:1038B000A5330008793300080025084C084F01267D
:1038C000207818B1C7F8A061257002E0C7F8A051B0
:1038D00026703220FCF7E0FDF2E700000000002037
:1038E0000000224200000000010203040C3900081D
:1038F00000000020E80000004C200008F439000817
:10390000E8000020900F00005C200008000000008C
:103910000100000001000000100000000000000095
:1039200000A24A04000000000000000000000000A7
:103930000000000000000000000000000000000087
:103940000000000000000000000000000000000077
:103950000000000000000000000000000000000067
:103960000000000000000000000000000000000057
:103970000000000000000000000000000000000047
:103980000000000000000000000000000000000037
:103990000000000000000000000000000000000027
:1039A0000000000000000000000000000000000017
:1039B0000000000000000000000000000000000007
:1039C00000000000000000000000000000000000F7
:1039D00000000000000000000000000000000000E7
:1039E00000000000000000000000000000000000D7
:0439F00000000000D3
:0400000508000131BD
:00000001FF
